{
  "_format": "hh-sol-artifact-1",
  "contractName": "Eldr",
  "sourceName": "contracts/Eldr.sol",
  "abi": [
    {
      "inputs": [
        {
          "internalType": "bytes32",
          "name": "_wlRoot",
          "type": "bytes32"
        },
        {
          "internalType": "bytes32",
          "name": "_freeRoot",
          "type": "bytes32"
        }
      ],
      "stateMutability": "nonpayable",
      "type": "constructor"
    },
    {
      "inputs": [],
      "name": "ApprovalCallerNotOwnerNorApproved",
      "type": "error"
    },
    {
      "inputs": [],
      "name": "ApprovalQueryForNonexistentToken",
      "type": "error"
    },
    {
      "inputs": [],
      "name": "ApprovalToCurrentOwner",
      "type": "error"
    },
    {
      "inputs": [],
      "name": "ApproveToCaller",
      "type": "error"
    },
    {
      "inputs": [],
      "name": "BalanceQueryForZeroAddress",
      "type": "error"
    },
    {
      "inputs": [],
      "name": "MintToZeroAddress",
      "type": "error"
    },
    {
      "inputs": [],
      "name": "MintZeroQuantity",
      "type": "error"
    },
    {
      "inputs": [],
      "name": "OwnerQueryForNonexistentToken",
      "type": "error"
    },
    {
      "inputs": [],
      "name": "TransferCallerNotOwnerNorApproved",
      "type": "error"
    },
    {
      "inputs": [],
      "name": "TransferFromIncorrectOwner",
      "type": "error"
    },
    {
      "inputs": [],
      "name": "TransferToNonERC721ReceiverImplementer",
      "type": "error"
    },
    {
      "inputs": [],
      "name": "TransferToZeroAddress",
      "type": "error"
    },
    {
      "inputs": [],
      "name": "URIQueryForNonexistentToken",
      "type": "error"
    },
    {
      "anonymous": false,
      "inputs": [
        {
          "indexed": true,
          "internalType": "address",
          "name": "owner",
          "type": "address"
        },
        {
          "indexed": true,
          "internalType": "address",
          "name": "approved",
          "type": "address"
        },
        {
          "indexed": true,
          "internalType": "uint256",
          "name": "tokenId",
          "type": "uint256"
        }
      ],
      "name": "Approval",
      "type": "event"
    },
    {
      "anonymous": false,
      "inputs": [
        {
          "indexed": true,
          "internalType": "address",
          "name": "owner",
          "type": "address"
        },
        {
          "indexed": true,
          "internalType": "address",
          "name": "operator",
          "type": "address"
        },
        {
          "indexed": false,
          "internalType": "bool",
          "name": "approved",
          "type": "bool"
        }
      ],
      "name": "ApprovalForAll",
      "type": "event"
    },
    {
      "anonymous": false,
      "inputs": [
        {
          "indexed": true,
          "internalType": "address",
          "name": "previousOwner",
          "type": "address"
        },
        {
          "indexed": true,
          "internalType": "address",
          "name": "newOwner",
          "type": "address"
        }
      ],
      "name": "OwnershipTransferred",
      "type": "event"
    },
    {
      "anonymous": false,
      "inputs": [
        {
          "indexed": true,
          "internalType": "address",
          "name": "from",
          "type": "address"
        },
        {
          "indexed": true,
          "internalType": "address",
          "name": "to",
          "type": "address"
        },
        {
          "indexed": true,
          "internalType": "uint256",
          "name": "tokenId",
          "type": "uint256"
        }
      ],
      "name": "Transfer",
      "type": "event"
    },
    {
      "inputs": [],
      "name": "FREE_MINT_LIMIT",
      "outputs": [
        {
          "internalType": "uint256",
          "name": "",
          "type": "uint256"
        }
      ],
      "stateMutability": "view",
      "type": "function"
    },
    {
      "inputs": [],
      "name": "MAX_SUPPLY",
      "outputs": [
        {
          "internalType": "uint256",
          "name": "",
          "type": "uint256"
        }
      ],
      "stateMutability": "view",
      "type": "function"
    },
    {
      "inputs": [],
      "name": "PROJECT_ADDRESS",
      "outputs": [
        {
          "internalType": "address",
          "name": "",
          "type": "address"
        }
      ],
      "stateMutability": "view",
      "type": "function"
    },
    {
      "inputs": [],
      "name": "RL_ADDRESS",
      "outputs": [
        {
          "internalType": "address",
          "name": "",
          "type": "address"
        }
      ],
      "stateMutability": "view",
      "type": "function"
    },
    {
      "inputs": [],
      "name": "WL_MINT_LIMIT",
      "outputs": [
        {
          "internalType": "uint256",
          "name": "",
          "type": "uint256"
        }
      ],
      "stateMutability": "view",
      "type": "function"
    },
    {
      "inputs": [],
      "name": "WL_PRICE",
      "outputs": [
        {
          "internalType": "uint256",
          "name": "",
          "type": "uint256"
        }
      ],
      "stateMutability": "view",
      "type": "function"
    },
    {
      "inputs": [],
      "name": "WL_SUPPLY",
      "outputs": [
        {
          "internalType": "uint256",
          "name": "",
          "type": "uint256"
        }
      ],
      "stateMutability": "view",
      "type": "function"
    },
    {
      "inputs": [
        {
          "internalType": "bytes32[]",
          "name": "proof",
          "type": "bytes32[]"
        }
      ],
      "name": "allowMint",
      "outputs": [],
      "stateMutability": "payable",
      "type": "function"
    },
    {
      "inputs": [
        {
          "internalType": "address",
          "name": "to",
          "type": "address"
        },
        {
          "internalType": "uint256",
          "name": "tokenId",
          "type": "uint256"
        }
      ],
      "name": "approve",
      "outputs": [],
      "stateMutability": "nonpayable",
      "type": "function"
    },
    {
      "inputs": [
        {
          "internalType": "address",
          "name": "owner",
          "type": "address"
        }
      ],
      "name": "balanceOf",
      "outputs": [
        {
          "internalType": "uint256",
          "name": "",
          "type": "uint256"
        }
      ],
      "stateMutability": "view",
      "type": "function"
    },
    {
      "inputs": [
        {
          "internalType": "bytes32[]",
          "name": "proof",
          "type": "bytes32[]"
        }
      ],
      "name": "freeMint",
      "outputs": [],
      "stateMutability": "payable",
      "type": "function"
    },
    {
      "inputs": [
        {
          "internalType": "uint256",
          "name": "tokenId",
          "type": "uint256"
        }
      ],
      "name": "getApproved",
      "outputs": [
        {
          "internalType": "address",
          "name": "",
          "type": "address"
        }
      ],
      "stateMutability": "view",
      "type": "function"
    },
    {
      "inputs": [
        {
          "internalType": "address",
          "name": "owner",
          "type": "address"
        },
        {
          "internalType": "address",
          "name": "operator",
          "type": "address"
        }
      ],
      "name": "isApprovedForAll",
      "outputs": [
        {
          "internalType": "bool",
          "name": "",
          "type": "bool"
        }
      ],
      "stateMutability": "view",
      "type": "function"
    },
    {
      "inputs": [],
      "name": "isFreeActive",
      "outputs": [
        {
          "internalType": "bool",
          "name": "",
          "type": "bool"
        }
      ],
      "stateMutability": "view",
      "type": "function"
    },
    {
      "inputs": [],
      "name": "isWlSaleActive",
      "outputs": [
        {
          "internalType": "bool",
          "name": "",
          "type": "bool"
        }
      ],
      "stateMutability": "view",
      "type": "function"
    },
    {
      "inputs": [],
      "name": "name",
      "outputs": [
        {
          "internalType": "string",
          "name": "",
          "type": "string"
        }
      ],
      "stateMutability": "view",
      "type": "function"
    },
    {
      "inputs": [
        {
          "internalType": "address",
          "name": "owner",
          "type": "address"
        }
      ],
      "name": "numberMinted",
      "outputs": [
        {
          "internalType": "uint256",
          "name": "",
          "type": "uint256"
        }
      ],
      "stateMutability": "view",
      "type": "function"
    },
    {
      "inputs": [],
      "name": "owner",
      "outputs": [
        {
          "internalType": "address",
          "name": "",
          "type": "address"
        }
      ],
      "stateMutability": "view",
      "type": "function"
    },
    {
      "inputs": [
        {
          "internalType": "uint256",
          "name": "tokenId",
          "type": "uint256"
        }
      ],
      "name": "ownerOf",
      "outputs": [
        {
          "internalType": "address",
          "name": "",
          "type": "address"
        }
      ],
      "stateMutability": "view",
      "type": "function"
    },
    {
      "inputs": [],
      "name": "renounceOwnership",
      "outputs": [],
      "stateMutability": "nonpayable",
      "type": "function"
    },
    {
      "inputs": [
        {
          "internalType": "bool",
          "name": "revealed",
          "type": "bool"
        },
        {
          "internalType": "string",
          "name": "_baseURI",
          "type": "string"
        }
      ],
      "name": "reveal",
      "outputs": [],
      "stateMutability": "nonpayable",
      "type": "function"
    },
    {
      "inputs": [
        {
          "internalType": "address",
          "name": "from",
          "type": "address"
        },
        {
          "internalType": "address",
          "name": "to",
          "type": "address"
        },
        {
          "internalType": "uint256",
          "name": "tokenId",
          "type": "uint256"
        }
      ],
      "name": "safeTransferFrom",
      "outputs": [],
      "stateMutability": "nonpayable",
      "type": "function"
    },
    {
      "inputs": [
        {
          "internalType": "address",
          "name": "from",
          "type": "address"
        },
        {
          "internalType": "address",
          "name": "to",
          "type": "address"
        },
        {
          "internalType": "uint256",
          "name": "tokenId",
          "type": "uint256"
        },
        {
          "internalType": "bytes",
          "name": "_data",
          "type": "bytes"
        }
      ],
      "name": "safeTransferFrom",
      "outputs": [],
      "stateMutability": "nonpayable",
      "type": "function"
    },
    {
      "inputs": [
        {
          "internalType": "address",
          "name": "operator",
          "type": "address"
        },
        {
          "internalType": "bool",
          "name": "approved",
          "type": "bool"
        }
      ],
      "name": "setApprovalForAll",
      "outputs": [],
      "stateMutability": "nonpayable",
      "type": "function"
    },
    {
      "inputs": [
        {
          "internalType": "string",
          "name": "URI",
          "type": "string"
        }
      ],
      "name": "setBaseURI",
      "outputs": [],
      "stateMutability": "nonpayable",
      "type": "function"
    },
    {
      "inputs": [
        {
          "internalType": "bytes32",
          "name": "_freeRoot",
          "type": "bytes32"
        }
      ],
      "name": "setFreeRoot",
      "outputs": [],
      "stateMutability": "nonpayable",
      "type": "function"
    },
    {
      "inputs": [
        {
          "internalType": "uint256",
          "name": "_supply",
          "type": "uint256"
        }
      ],
      "name": "setMaxSupply",
      "outputs": [],
      "stateMutability": "nonpayable",
      "type": "function"
    },
    {
      "inputs": [
        {
          "internalType": "uint256",
          "name": "_mintLimit",
          "type": "uint256"
        }
      ],
      "name": "setWLMintLimit",
      "outputs": [],
      "stateMutability": "nonpayable",
      "type": "function"
    },
    {
      "inputs": [
        {
          "internalType": "bytes32",
          "name": "_wlRoot",
          "type": "bytes32"
        }
      ],
      "name": "setWLSaleRoot",
      "outputs": [],
      "stateMutability": "nonpayable",
      "type": "function"
    },
    {
      "inputs": [
        {
          "internalType": "uint256",
          "name": "_price",
          "type": "uint256"
        }
      ],
      "name": "setWlPrice",
      "outputs": [],
      "stateMutability": "nonpayable",
      "type": "function"
    },
    {
      "inputs": [
        {
          "internalType": "bytes4",
          "name": "interfaceId",
          "type": "bytes4"
        }
      ],
      "name": "supportsInterface",
      "outputs": [
        {
          "internalType": "bool",
          "name": "",
          "type": "bool"
        }
      ],
      "stateMutability": "view",
      "type": "function"
    },
    {
      "inputs": [],
      "name": "symbol",
      "outputs": [
        {
          "internalType": "string",
          "name": "",
          "type": "string"
        }
      ],
      "stateMutability": "view",
      "type": "function"
    },
    {
      "inputs": [],
      "name": "toggleFreeMintStatus",
      "outputs": [],
      "stateMutability": "nonpayable",
      "type": "function"
    },
    {
      "inputs": [],
      "name": "toggleWlMintStatus",
      "outputs": [],
      "stateMutability": "nonpayable",
      "type": "function"
    },
    {
      "inputs": [
        {
          "internalType": "uint256",
          "name": "tokenId",
          "type": "uint256"
        }
      ],
      "name": "tokenURI",
      "outputs": [
        {
          "internalType": "string",
          "name": "",
          "type": "string"
        }
      ],
      "stateMutability": "view",
      "type": "function"
    },
    {
      "inputs": [],
      "name": "totalSupply",
      "outputs": [
        {
          "internalType": "uint256",
          "name": "",
          "type": "uint256"
        }
      ],
      "stateMutability": "view",
      "type": "function"
    },
    {
      "inputs": [
        {
          "internalType": "address",
          "name": "from",
          "type": "address"
        },
        {
          "internalType": "address",
          "name": "to",
          "type": "address"
        },
        {
          "internalType": "uint256",
          "name": "tokenId",
          "type": "uint256"
        }
      ],
      "name": "transferFrom",
      "outputs": [],
      "stateMutability": "nonpayable",
      "type": "function"
    },
    {
      "inputs": [
        {
          "internalType": "address",
          "name": "newOwner",
          "type": "address"
        }
      ],
      "name": "transferOwnership",
      "outputs": [],
      "stateMutability": "nonpayable",
      "type": "function"
    },
    {
      "inputs": [
        {
          "internalType": "bytes32",
          "name": "",
          "type": "bytes32"
        }
      ],
      "name": "usedDigests",
      "outputs": [
        {
          "internalType": "bool",
          "name": "",
          "type": "bool"
        }
      ],
      "stateMutability": "view",
      "type": "function"
    },
    {
      "inputs": [],
      "name": "withdraw",
      "outputs": [],
      "stateMutability": "nonpayable",
      "type": "function"
    }
  ],
  "bytecode": "0x6101a4600a55610140600b556001600c819055600d556701f87c3f661b0000600e55600f805462ffffff1916905560a060408190526000608081905262000049916010916200015a565b503480156200005757600080fd5b506040516200231a3803806200231a8339810160408190526200007a9162000200565b6040518060400160405280600481526020016322b6323960e11b8152506040518060400160405280600481526020016322a6222960e11b8152508160029080519060200190620000cc9291906200015a565b508051620000e29060039060208401906200015a565b50506000805550620000f43362000108565b600160095560129190915560115562000262565b600880546001600160a01b038381166001600160a01b0319831681179093556040519116919082907f8be0079c531659141344cd1fd0a4f28419497f9722a3daafe3b4186f6b6457e090600090a35050565b828054620001689062000225565b90600052602060002090601f0160209004810192826200018c5760008555620001d7565b82601f10620001a757805160ff1916838001178555620001d7565b82800160010185558215620001d7579182015b82811115620001d7578251825591602001919060010190620001ba565b50620001e5929150620001e9565b5090565b5b80821115620001e55760008155600101620001ea565b600080604083850312156200021457600080fd5b505080516020909101519092909150565b600181811c908216806200023a57607f821691505b602082108114156200025c57634e487b7160e01b600052602260045260246000fd5b50919050565b6120a880620002726000396000f3fe60806040526004361061023b5760003560e01c80638dd07d0f1161012e578063cc7eee1e116100ab578063e985e9c51161006f578063e985e9c514610679578063ec9070f8146106c2578063f234675b146106e2578063f2fde38b146106fc578063ff12ec741461071c57600080fd5b8063cc7eee1e146105df578063d39c4de7146105fe578063dc33e6811461062e578063e5548b8b1461064e578063e5cb8c6b1461066457600080fd5b8063a7048ae1116100f2578063a7048ae114610560578063afe2e1fa14610576578063b88d4fde1461058c578063bf876fbf146105ac578063c87b56dd146105bf57600080fd5b80638dd07d0f146104cb5780639533929a146104eb57806395d89b411461050b578063a101ff6d14610520578063a22cb4651461054057600080fd5b80633ffb24d3116101bc5780636f8b44b0116101805780636f8b44b01461044557806370a0823114610465578063715018a61461048557806388d15d501461049a5780638da5cb5b146104ad57600080fd5b80633ffb24d31461039557806342842e0e146103bd5780634bf94070146103dd57806355f804b3146104055780636352211e1461042557600080fd5b806318160ddd1161020357806318160ddd1461031157806323b872dd1461033457806331c3c7a01461035457806332cb6b0c1461036a5780633ccfd60b1461038057600080fd5b806301ffc9a71461024057806306fdde0314610275578063081812fc14610297578063095ea7b3146102cf57806310a44f89146102f1575b600080fd5b34801561024c57600080fd5b5061026061025b3660046119d7565b610731565b60405190151581526020015b60405180910390f35b34801561028157600080fd5b5061028a610783565b60405161026c9190611a4c565b3480156102a357600080fd5b506102b76102b2366004611a5f565b610815565b6040516001600160a01b03909116815260200161026c565b3480156102db57600080fd5b506102ef6102ea366004611a8f565b610859565b005b3480156102fd57600080fd5b506102ef61030c366004611a5f565b61092c565b34801561031d57600080fd5b50600154600054035b60405190815260200161026c565b34801561034057600080fd5b506102ef61034f366004611ab9565b610939565b34801561036057600080fd5b50610326600e5481565b34801561037657600080fd5b50610326600a5481565b34801561038c57600080fd5b506102ef610949565b3480156103a157600080fd5b506102b773c9b5553910ba47719e0202ff9f617b8be06b3a0981565b3480156103c957600080fd5b506102ef6103d8366004611ab9565b610a3b565b3480156103e957600080fd5b506102b77327d24a8ecb3d32844e48ddf567c41b919522bc9281565b34801561041157600080fd5b506102ef610420366004611b3e565b610a56565b34801561043157600080fd5b506102b7610440366004611a5f565b610a6a565b34801561045157600080fd5b506102ef610460366004611a5f565b610a75565b34801561047157600080fd5b50610326610480366004611b80565b610a82565b34801561049157600080fd5b506102ef610ac8565b6102ef6104a8366004611be2565b610adc565b3480156104b957600080fd5b506008546001600160a01b03166102b7565b3480156104d757600080fd5b506102ef6104e6366004611a5f565b610d41565b3480156104f757600080fd5b506102ef610506366004611a5f565b610d4e565b34801561051757600080fd5b5061028a610d5b565b34801561052c57600080fd5b506102ef61053b366004611c98565b610d6a565b34801561054c57600080fd5b506102ef61055b366004611ceb565b610d99565b34801561056c57600080fd5b50610326600d5481565b34801561058257600080fd5b50610326600b5481565b34801561059857600080fd5b506102ef6105a7366004611d1e565b610e2f565b6102ef6105ba366004611be2565b610e73565b3480156105cb57600080fd5b5061028a6105da366004611a5f565b6110f6565b3480156105eb57600080fd5b50600f5461026090610100900460ff1681565b34801561060a57600080fd5b50610260610619366004611a5f565b60146020526000908152604090205460ff1681565b34801561063a57600080fd5b50610326610649366004611b80565b611153565b34801561065a57600080fd5b50610326600c5481565b34801561067057600080fd5b506102ef61117e565b34801561068557600080fd5b50610260610694366004611dde565b6001600160a01b03918216600090815260076020908152604080832093909416825291909152205460ff1690565b3480156106ce57600080fd5b506102ef6106dd366004611a5f565b61119a565b3480156106ee57600080fd5b50600f546102609060ff1681565b34801561070857600080fd5b506102ef610717366004611b80565b6111a7565b34801561072857600080fd5b506102ef611220565b60006301ffc9a760e01b6001600160e01b03198316148061076257506380ac58cd60e01b6001600160e01b03198316145b8061077d5750635b5e139f60e01b6001600160e01b03198316145b92915050565b60606002805461079290611e08565b80601f01602080910402602001604051908101604052809291908181526020018280546107be90611e08565b801561080b5780601f106107e05761010080835404028352916020019161080b565b820191906000526020600020905b8154815290600101906020018083116107ee57829003601f168201915b5050505050905090565b600061082082611245565b61083d576040516333d1c03960e21b815260040160405180910390fd5b506000908152600660205260409020546001600160a01b031690565b60006108648261126c565b9050806001600160a01b0316836001600160a01b031614156108995760405163250fdee360e21b815260040160405180910390fd5b336001600160a01b038216146108d0576108b38133610694565b6108d0576040516367d9dca160e11b815260040160405180910390fd5b60008281526006602052604080822080546001600160a01b0319166001600160a01b0387811691821790925591518593918516917f8c5be1e5ebec7d5bd14f71427d1e84f3dd0314c0f7b2291e5b200ac8c7c3b92591a4505050565b6109346112d4565b601155565b61094483838361132e565b505050565b6109516112d4565b478061099d5760405162461bcd60e51b81526020600482015260166024820152754e6f2062616c616e636520746f20776974686472617760501b60448201526064015b60405180910390fd5b73c9b5553910ba47719e0202ff9f617b8be06b3a096108fc6127106109c4846107d0611e59565b6109ce9190611e8e565b6040518115909202916000818181858888f193505050501580156109f6573d6000803e3d6000fd5b506040517327d24a8ecb3d32844e48ddf567c41b919522bc92904780156108fc02916000818181858888f19350505050158015610a37573d6000803e3d6000fd5b5050565b61094483838360405180602001604052806000815250610e2f565b610a5e6112d4565b61094460108383611928565b600061077d8261126c565b610a7d6112d4565b600a55565b600081610aa2576040516323d3ad8160e21b815260040160405180910390fd5b506001600160a01b031660009081526005602052604090205467ffffffffffffffff1690565b610ad06112d4565b610ada60006114de565b565b336000908152601360205260409020546002904211610b3d5760405162461bcd60e51b815260206004820152601d60248201527f43414e4e4f545f4d494e545f4f4e5f5448455f53414d455f424c4f434b0000006044820152606401610994565b323314610b8c5760405162461bcd60e51b815260206004820152601d60248201527f434f4e5452414354535f4e4f545f414c4c4f5745445f544f5f4d494e540000006044820152606401610994565b8060ff1660011415610bba57600f5460ff16610bba5760405162461bcd60e51b815260040161099490611ea2565b8060ff1660021415610bed57600f54610100900460ff16610bed5760405162461bcd60e51b815260040161099490611ea2565b6011546040516bffffffffffffffffffffffff193360601b166020820152610c309184916034015b60405160208183030381529060405280519060200120611530565b610c6c5760405162461bcd60e51b815260206004820152600d60248201526c141493d3d197d2539590531251609a1b6044820152606401610994565b600a5460015460005403610c81906001611ed9565b1115610cc35760405162461bcd60e51b81526020600482015260116024820152704e4f545f454e4f5547485f535550504c5960781b6044820152606401610994565b600d54610ccf33611153565b610cda906001611ed9565b1115610d245760405162461bcd60e51b8152602060048201526019602482015278115610d1515117d414905191931157d352539517d312535255603a1b6044820152606401610994565b336000818152601360205260409020429055610a37906001611546565b610d496112d4565b600e55565b610d566112d4565b601255565b60606003805461079290611e08565b610d726112d4565b600f805462ff000019166201000085151502179055610d9360108383611928565b50505050565b6001600160a01b038216331415610dc35760405163b06307db60e01b815260040160405180910390fd5b3360008181526007602090815260408083206001600160a01b03871680855290835292819020805460ff191686151590811790915590519081529192917f17307eab39ab6107e8899845ad3d59bd9653f200f220920489ca2b5937696c31910160405180910390a35050565b610e3a84848461132e565b6001600160a01b0383163b15610d9357610e5684848484611560565b610d93576040516368d2bf6b60e11b815260040160405180910390fd5b336000908152601360205260409020546001904211610ed45760405162461bcd60e51b815260206004820152601d60248201527f43414e4e4f545f4d494e545f4f4e5f5448455f53414d455f424c4f434b0000006044820152606401610994565b323314610f235760405162461bcd60e51b815260206004820152601d60248201527f434f4e5452414354535f4e4f545f414c4c4f5745445f544f5f4d494e540000006044820152606401610994565b8060ff1660011415610f5157600f5460ff16610f515760405162461bcd60e51b815260040161099490611ea2565b8060ff1660021415610f8457600f54610100900460ff16610f845760405162461bcd60e51b815260040161099490611ea2565b6012546040516bffffffffffffffffffffffff193360601b166020820152610fb0918491603401610c15565b610fec5760405162461bcd60e51b815260206004820152600d60248201526c141493d3d197d2539590531251609a1b6044820152606401610994565b600b5460015460005403611001906001611ed9565b11156110475760405162461bcd60e51b81526020600482015260156024820152744558434545445f574c5f4d494e545f535550504c5960581b6044820152606401610994565b600c5461105333611153565b61105e906001611ed9565b11156110a85760405162461bcd60e51b8152602060048201526019602482015278115610d1515117d414905191931157d352539517d312535255603a1b6044820152606401610994565b600e546110b6906001611e59565b3414610d245760405162461bcd60e51b815260206004820152600f60248201526e57524f4e475f4554485f56414c554560881b6044820152606401610994565b600f5460609062010000900460ff161561113c57601061111583611649565b604051602001611126929190611f8b565b6040516020818303038152906040529050919050565b60106040516020016111269190611fb0565b919050565b6001600160a01b0381166000908152600560205260408082205467ffffffffffffffff911c1661077d565b6111866112d4565b600f805460ff19811660ff90911615179055565b6111a26112d4565b600c55565b6111af6112d4565b6001600160a01b0381166112145760405162461bcd60e51b815260206004820152602660248201527f4f776e61626c653a206e6577206f776e657220697320746865207a65726f206160448201526564647265737360d01b6064820152608401610994565b61121d816114de565b50565b6112286112d4565b600f805461ff001981166101009182900460ff1615909102179055565b600080548210801561077d575050600090815260046020526040902054600160e01b161590565b6000816000548110156112bb57600081815260046020526040902054600160e01b81166112b9575b806112b2575060001901600081815260046020526040902054611294565b9392505050565b505b604051636f96cda160e11b815260040160405180910390fd5b6008546001600160a01b03163314610ada5760405162461bcd60e51b815260206004820181905260248201527f4f776e61626c653a2063616c6c6572206973206e6f7420746865206f776e65726044820152606401610994565b60006113398261126c565b9050836001600160a01b0316816001600160a01b03161461136c5760405162a1148160e81b815260040160405180910390fd5b6000828152600660205260408120546001600160a01b039081169190861633148061139c575061139c8633610694565b806113af57506001600160a01b03821633145b9050806113cf57604051632ce44b5f60e11b815260040160405180910390fd5b846113ed57604051633a954ecd60e21b815260040160405180910390fd5b811561141057600084815260066020526040902080546001600160a01b03191690555b6001600160a01b03868116600090815260056020908152604080832080546000190190559288168252828220805460010190558682526004905220600160e11b4260a01b87178117909155831661149557600184016000818152600460205260409020546114935760005481146114935760008181526004602052604090208490555b505b83856001600160a01b0316876001600160a01b03167fddf252ad1be2c89b69c2b068fc378daa952ba7f163c4a11628f55a4df523b3ef60405160405180910390a4505050505050565b600880546001600160a01b038381166001600160a01b0319831681179093556040519116919082907f8be0079c531659141344cd1fd0a4f28419497f9722a3daafe3b4186f6b6457e090600090a35050565b60008261153d8584611747565b14949350505050565b610a37828260405180602001604052806000815250611794565b604051630a85bd0160e11b81526000906001600160a01b0385169063150b7a0290611595903390899088908890600401611fbc565b6020604051808303816000875af19250505080156115d0575060408051601f3d908101601f191682019092526115cd91810190611ff9565b60015b61162b573d8080156115fe576040519150601f19603f3d011682016040523d82523d6000602084013e611603565b606091505b508051611623576040516368d2bf6b60e11b815260040160405180910390fd5b805181602001fd5b6001600160e01b031916630a85bd0160e11b1490505b949350505050565b60608161166d5750506040805180820190915260018152600360fc1b602082015290565b8160005b8115611697578061168181612016565b91506116909050600a83611e8e565b9150611671565b60008167ffffffffffffffff8111156116b2576116b2611b9b565b6040519080825280601f01601f1916602001820160405280156116dc576020820181803683370190505b5090505b8415611641576116f1600183612031565b91506116fe600a86612048565b611709906030611ed9565b60f81b81838151811061171e5761171e61205c565b60200101906001600160f81b031916908160001a905350611740600a86611e8e565b94506116e0565b600081815b845181101561178c576117788286838151811061176b5761176b61205c565b60200260200101516118fc565b91508061178481612016565b91505061174c565b509392505050565b600054836117b457604051622e076360e81b815260040160405180910390fd5b826117d25760405163b562e8dd60e01b815260040160405180910390fd5b6001600160a01b03841660008181526005602090815260408083208054680100000000000000018902019055848352600490915290204260a01b86176001861460e11b1790558190818501903b156118a7575b60405182906001600160a01b038816906000907fddf252ad1be2c89b69c2b068fc378daa952ba7f163c4a11628f55a4df523b3ef908290a46118706000878480600101955087611560565b61188d576040516368d2bf6b60e11b815260040160405180910390fd5b8082106118255782600054146118a257600080fd5b6118ec565b5b6040516001830192906001600160a01b038816906000907fddf252ad1be2c89b69c2b068fc378daa952ba7f163c4a11628f55a4df523b3ef908290a48082106118a8575b506000908155610d939085838684565b60008183106119185760008281526020849052604090206112b2565b5060009182526020526040902090565b82805461193490611e08565b90600052602060002090601f016020900481019282611956576000855561199c565b82601f1061196f5782800160ff1982351617855561199c565b8280016001018555821561199c579182015b8281111561199c578235825591602001919060010190611981565b506119a89291506119ac565b5090565b5b808211156119a857600081556001016119ad565b6001600160e01b03198116811461121d57600080fd5b6000602082840312156119e957600080fd5b81356112b2816119c1565b60005b83811015611a0f5781810151838201526020016119f7565b83811115610d935750506000910152565b60008151808452611a388160208601602086016119f4565b601f01601f19169290920160200192915050565b6020815260006112b26020830184611a20565b600060208284031215611a7157600080fd5b5035919050565b80356001600160a01b038116811461114e57600080fd5b60008060408385031215611aa257600080fd5b611aab83611a78565b946020939093013593505050565b600080600060608486031215611ace57600080fd5b611ad784611a78565b9250611ae560208501611a78565b9150604084013590509250925092565b60008083601f840112611b0757600080fd5b50813567ffffffffffffffff811115611b1f57600080fd5b602083019150836020828501011115611b3757600080fd5b9250929050565b60008060208385031215611b5157600080fd5b823567ffffffffffffffff811115611b6857600080fd5b611b7485828601611af5565b90969095509350505050565b600060208284031215611b9257600080fd5b6112b282611a78565b634e487b7160e01b600052604160045260246000fd5b604051601f8201601f1916810167ffffffffffffffff81118282101715611bda57611bda611b9b565b604052919050565b60006020808385031215611bf557600080fd5b823567ffffffffffffffff80821115611c0d57600080fd5b818501915085601f830112611c2157600080fd5b813581811115611c3357611c33611b9b565b8060051b9150611c44848301611bb1565b8181529183018401918481019088841115611c5e57600080fd5b938501935b83851015611c7c57843582529385019390850190611c63565b98975050505050505050565b8035801515811461114e57600080fd5b600080600060408486031215611cad57600080fd5b611cb684611c88565b9250602084013567ffffffffffffffff811115611cd257600080fd5b611cde86828701611af5565b9497909650939450505050565b60008060408385031215611cfe57600080fd5b611d0783611a78565b9150611d1560208401611c88565b90509250929050565b60008060008060808587031215611d3457600080fd5b611d3d85611a78565b93506020611d4c818701611a78565b935060408601359250606086013567ffffffffffffffff80821115611d7057600080fd5b818801915088601f830112611d8457600080fd5b813581811115611d9657611d96611b9b565b611da8601f8201601f19168501611bb1565b91508082528984828501011115611dbe57600080fd5b808484018584013760008482840101525080935050505092959194509250565b60008060408385031215611df157600080fd5b611dfa83611a78565b9150611d1560208401611a78565b600181811c90821680611e1c57607f821691505b60208210811415611e3d57634e487b7160e01b600052602260045260246000fd5b50919050565b634e487b7160e01b600052601160045260246000fd5b6000816000190483118215151615611e7357611e73611e43565b500290565b634e487b7160e01b600052601260045260246000fd5b600082611e9d57611e9d611e78565b500490565b60208082526019908201527f574c5f4d494e545f49535f4e4f545f5945545f41435449564500000000000000604082015260600190565b60008219821115611eec57611eec611e43565b500190565b8054600090600181811c9080831680611f0b57607f831692505b6020808410821415611f2d57634e487b7160e01b600052602260045260246000fd5b818015611f415760018114611f5257611f7f565b60ff19861689528489019650611f7f565b60008881526020902060005b86811015611f775781548b820152908501908301611f5e565b505084890196505b50505050505092915050565b6000611f978285611ef1565b8351611fa78183602088016119f4565b01949350505050565b60006112b28284611ef1565b6001600160a01b0385811682528416602082015260408101839052608060608201819052600090611fef90830184611a20565b9695505050505050565b60006020828403121561200b57600080fd5b81516112b2816119c1565b600060001982141561202a5761202a611e43565b5060010190565b60008282101561204357612043611e43565b500390565b60008261205757612057611e78565b500690565b634e487b7160e01b600052603260045260246000fdfea2646970667358221220d057c0e5c6cb7798ded7333eb7663533d6e53da522738862995bd64587c4761f64736f6c634300080a0033",
  "linkReferences": {},
  "deployedLinkReferences": {}
}